:20C00000E2B202001F20F2B202000F20D2B302002524F2D22100E2C22100F2F0EF0021000A
:20C02000E2C20200F2C20200193CF2D010002100E2C22100F2C22100B240095A2001F2C298
:20C0400002000C3CE2D22100F2C22100F2F0EF002100B2400D5A2001E2C2020030412183C5
:20C06000B240805A2001F2D030005700B012B6C0B1401027000081930000052491830000D9
:20C0800081930000FB23E2B30200F223E2E321000D123D40030D1D83FE233D41B01200C06F
:20C0A000F53F31400004B012D6C00C43B0125EC01C43B012D0C0F2D01F002200D2D32100D6
:1AC0C000F2F0E1002100304132D01000FD3F03430343FF3F03431C433041E3
:02FFDE00FFFF23
:02FFE000C8C097
:02FFE400C8C093
:02FFE600C8C091
:02FFEA00C8C08D
:02FFEC00C8C08B
:02FFEE00C8C089
:02FFF000C8C087
:02FFF200C8C085
:02FFF400C8C083
:02FFF600C8C081
:02FFF800C8C07F
:02FFFA00C8C07D
:02FFFC00C8C07B
:02FFFE00A2C09F
:00000001FF
