:20C00000E2B202001F20F2B202000F20D2B302002524F2D22100E2C22100F2F0EF0021000A
:20C02000E2C20200F2C20200193CF2D010002100E2C22100F2C22100B2400D5A2001F2C294
:20C0400002000C3CE2D22100F2C22100F2F0EF002100B2400D5A2001E2C2020030412183C5
:20C06000B240805A2001F2D030005700B012CAC0E2C30200B1401027000081930000052432
:20C080009183000081930000FB23E2B30200F023B01200C0E2E321000D120E123D408C10F0
:20C0A0003E4003001D830E73FD230D93FB233E413D41003CEF3F31400004B012EAC00C4369
:20C0C000B0125EC01C43B012E4C0F2D01F002200D2D32100F2F0E1002100304132D010008B
:0EC0E000FD3F03430343FF3F03431C43304136
:02FFDE00FFFF23
:02FFE000DCC083
:02FFE400DCC07F
:02FFE600DCC07D
:02FFEA00DCC079
:02FFEC00DCC077
:02FFEE00DCC075
:02FFF000DCC073
:02FFF200DCC071
:02FFF400DCC06F
:02FFF600DCC06D
:02FFF800DCC06B
:02FFFA00DCC069
:02FFFC00DCC067
:02FFFE00B6C08B
:00000001FF
