:20C000000A12091209430A431B430F930424094D0D4C0C430D3C0C5C0D6D0969098E0428CA
:20C020001CD30B5BF82B033C095E0B5BF42B1B430C5C0D6D09690A6A098E0A7F04281CD3FC
:20C040000B5BF62B043C095E0A6F0B5BF12B0E490F4A39413A41304131800C00B240805A18
:20C060002001B0128CC1B01254C1B2D00300B00192B3B201FD23B1400004000081430200B0
:20C080009143040081430600B140FF00080081430A001C42B4010D430E430F43B012A6C00A
:20C0A000824C7401E23F0A1209120812071206120512054E064F1E4116001F411800174196
:20C0C00012001841140019410E001A4110000C850D760E870F78B0122EC109850A760E49C8
:20C0E0000F4AB012EEC00C570D6830409EC10A120A430F9305343EE33FE31E530F631AD379
:20C100000D9305343CE33DE31C530D633AE3B01200C01AB304243CE33DE31C530D632AB399
:20C1200004243EE33FE31E530F633A4130410A120A430B4312C30D100C1002280A5E0B6FF4
:20C140000E5E0F6F0D93F6230C93F4230C4A0D4B3A413041F2D040002200F2D040002600A0
:20C16000B240FF007201B240E000640192437401B24010026001304131400004B012BAC152
:20C180000C43B01258C01C43B012B4C1D2D34A008243B201B2401018B00130413441354152
:1EC1A00036413741384139413A41304132D01000FD3F03430343FF3F03431C43304185
:02FFDE00FFFF23
:02FFE000ACC1B2
:02FFE400ACC1AE
:02FFE600ACC1AC
:02FFEA00ACC1A8
:02FFEC00ACC1A6
:02FFEE00ACC1A4
:02FFF000ACC1A2
:02FFF200ACC1A0
:02FFF400ACC19E
:02FFF600ACC19C
:02FFF800ACC19A
:02FFFA00ACC198
:02FFFC00ACC196
:02FFFE0078C1C8
:00000001FF
