:20C000000A12091208120A4C784A0943113C0E4D0E8B1E831D53FD4EFFFF1F83FB23033CD1
:20C020001D53FD4AFFFF12C3081019533992EC3718B3F6237B4A7F4A0C4BB01260C10B4C01
:20C040000C4FB012B6C03CF00F000BDC3FF00F003F5003003F9012000C207E4A3EB0800018
:20C0600007247C4A4C4CB0125AC13EF07F000EDC0F5E3B90FF0FCB233040DAC13DF00F0048
:20C080003DE00F000D5D0D5D005D12C30C1012C30C1012C30C1012C30C1012C30C1012C3B9
:20C0A0000C1012C30C1012C30C1012C30C1012C30C1012C30C1012C30C1012C30C1012C3F8
:20C0C0000C1012C30C1030410A1209123F400EC23F9014C216243F401EC23F9026C2112432
:20C0E0003A4026C23A801EC20A110A1139401EC23C497F4C0F5F1F4F0EC23D498F121A83F5
:20C10000F723B0120CC23040DCC1B240805A2001E2C30200B24050C300028293000205248D
:20C120009283000282930002FB23E2B30200F023B0129AC1B012EEC132D0D80030413DF003
:20C140000F003DE00F000D5D005D0C5C0C5C0C5C0C5C0C5C0C5C0C5C0C5C0C5C0C5C0C5C65
:20C160000C5C0C5C0C5C0C5C304131400004B01208C20C930224B012C8C00C43B0120AC1C2
:20C180001C43B01202C21F4C01000F9305241D53CD43FFFF1F83FB233041B240100062016F
:20C1A000B24010016001B2400080720130410F4C0C4D3D4003000D5F1E4F01003040C0C1C6
:20C1C0000E9306240F4C1F53FF4DFFFF1E83FB2330413441354136413741384139413A4105
:20C1E0003041D2530202D242020229000013F2D32A00D24229002900304132D01000FD3F3D
:0EC2000003430343FF3F03431C4330413041DF
:18C20E0086C100C0AEC10200020000000000020014C202021AC20002E4
:02FFDE00FFFF23
:02FFE000FAC164
:02FFE400FAC160
:02FFE600FAC15E
:02FFEA00FAC15A
:02FFEC00FAC158
:02FFEE00FAC156
:02FFF000FAC154
:02FFF200E2C16A
:02FFF400FAC150
:02FFF600FAC14E
:02FFF800FAC14C
:02FFFA00FAC14A
:02FFFC00FAC148
:02FFFE006AC1D6
:00000001FF
