:20C000000A1209120812B240805A2001F2D080002200B01240C1B2D00300B00192B3B2018D
:20C02000FD231F42B4010E4309430A433A9302203993F1270C4F0D4E12C30D100C100CEF4E
:20C040000DEEB012D0C00B4F084E0BEC08ED12C308100B1012C308100B100BEF0C4BB012D4
:20C06000F6C012C30E100F100FD30EDC1C430CFFB01206C1C24C21003C409600B01216C15F
:20C0800019530A633A93D6233993C527D33F12C30D100C1012C30D100C1012C30D100C100D
:20C0A00012C30D100C1012C30D100C1012C30D100C1012C30D100C1012C30D100C1012C365
:20C0C0000D100C1012C30D100C1012C30D100C1012C30D100C1012C30D100C1012C30D10FD
:20C0E0000C1012C30D100C1030413DF00F003DE00F000D5D005D0C5C0C5C0C5C0C5C0C5C6E
:20C100000C5C0C5C0C5C0C5C0C5C0C5C0C5C0C5C0C5C0C5C30410C9308240D123D401F0018
:20C120001D83FE233D411C83F823304131400004B0125EC10C43B01200C01C43B01258C134
:20C14000D2D34A008243B201B2401018B001304132D01000FD3F03430343FF3F03431C437F
:02C1600030416C
:02FFDE00FFFF23
:02FFE00050C10E
:02FFE40050C10A
:02FFE60050C108
:02FFEA0050C104
:02FFEC0050C102
:02FFEE0050C100
:02FFF00050C1FE
:02FFF20050C1FC
:02FFF40050C1FA
:02FFF60050C1F8
:02FFF80050C1F6
:02FFFA0050C1F4
:02FFFC0050C1F2
:02FFFE002CC114
:00000001FF
