:20C000002182F2B223001B24F2E0800021008143000081430200819302000F20B190640090
:20C0200000000B2C9153000081630200819302000420B19064000000F52BF2C223002152B6
:20C040000013B240805A2001F2D080002200F2C22200F2D22700F2D22100F2C22400F2D23A
:20C06000250032D2FF3F31400004B01288C00C43B01242C01C43B01282C032D01000FD3F16
:0CC0800003430343FF3F03431C433041D4
:02FFDE00FFFF23
:02FFE0007AC0E5
:02FFE40000C05B
:02FFE6007AC0DF
:02FFEA007AC0DB
:02FFEC007AC0D9
:02FFEE007AC0D7
:02FFF0007AC0D5
:02FFF2007AC0D3
:02FFF4007AC0D1
:02FFF6007AC0CF
:02FFF8007AC0CD
:02FFFA007AC0CB
:02FFFC007AC0C9
:02FFFE0066C0DB
:00000001FF
