:20C00000B240805A2001F2D080002200F2C22200F2B22000FD230D123D40081A1D83FE2396
:20C020003D410343F2B22000FD270D123D40081A1D83FE233D410343F2E080002100E83F77
:20C0400031400004B01262C00C43B01200C01C43B0125CC032D01000FD3F03430343FF3F61
:06C0600003431C433041C4
:02FFDE00FFFF23
:02FFE00054C00B
:02FFE40054C007
:02FFE60054C005
:02FFEA0054C001
:02FFEC0054C0FF
:02FFEE0054C0FD
:02FFF00054C0FB
:02FFF20054C0F9
:02FFF40054C0F7
:02FFF60054C0F5
:02FFF80054C0F3
:02FFFA0054C0F1
:02FFFC0054C0EF
:02FFFE0040C001
:00000001FF
