:20C000002182B240805A2001F2D080002200F2D08000210081430000814302008193020029
:20C020000F20B190102700000B2C9153000081630200819302000420B19010270000F52B86
:20C04000F2F07F002100814300008143020081930200DD23B19010270000D92F915300005A
:20C060008163020081930200D223B19010270000CE2FF43F31400004B01296C00C43B01289
:1AC0800000C01C43B01290C032D01000FD3F03430343FF3F03431C43304147
:02FFDE00FFFF23
:02FFE00088C0D7
:02FFE40088C0D3
:02FFE60088C0D1
:02FFEA0088C0CD
:02FFEC0088C0CB
:02FFEE0088C0C9
:02FFF00088C0C7
:02FFF20088C0C5
:02FFF40088C0C3
:02FFF60088C0C1
:02FFF80088C0BF
:02FFFA0088C0BD
:02FFFC0088C0BB
:02FFFE0074C0CD
:00000001FF
