:20C00000E2B202001F20F2B202000F20D2B302002524F2D22900E2C22900F2F0EF002900F2
:20C02000E2C20200F2C20200193CF2D010002900E2C22900F2C22900B2400D5A2001F2C27C
:20C0400002000C3CE2D22900F2C22900F2F0EF002900B2400D5A2001E2C202003041B2405F
:20C06000805A2001F2D0C0002E00F2F03F004200F2F0BF005700F2F0CF005300D2D32600EB
:20C08000D2C34100D2D32200B012B6C0B01200C0E2E329000D123D40030D1D83FE233D4170
:20C0A000F73F31400004B012D6C00C43B0125EC01C43B012D0C0F2D01F002A00D2D32900C4
:1AC0C000F2F0E1002900304132D01000FD3F03430343FF3F03431C433041DB
:02FFDE00FFFF23
:02FFE000C8C097
:02FFE400C8C093
:02FFE600C8C091
:02FFEA00C8C08D
:02FFEC00C8C08B
:02FFEE00C8C089
:02FFF000C8C087
:02FFF200C8C085
:02FFF400C8C083
:02FFF600C8C081
:02FFF800C8C07F
:02FFFA00C8C07D
:02FFFC00C8C07B
:02FFFE00A2C09F
:00000001FF
