:20C00000E2B202001F20F2B202000F20D2B302002524F2D22100E2C22100F2F0EF0021000A
:20C02000E2C20200F2C20200193CF2D010002100E2C22100F2C22100B240095A2001F2C298
:20C0400002000C3CE2D22100F2C22100F2F0EF002100B2400D5A2001E2C2020030412183C5
:20C06000B240805A2001F2D030005700B012C6C0B1401027000081930000052491830000C9
:20C0800081930000FB23E2B30200F223E2E321000D120E123D408C103E4003001D830E73E2
:20C0A000FD230D93FB233E413D41003CB01200C0ED3F31400004B012E6C00C43B0125EC0AF
:20C0C0001C43B012E0C0F2D01F002200D2D32100F2F0E1002100304132D01000FD3F0343ED
:0AC0E0000343FF3F03431C433041BC
:02FFDE00FFFF23
:02FFE000D8C087
:02FFE400D8C083
:02FFE600D8C081
:02FFEA00D8C07D
:02FFEC00D8C07B
:02FFEE00D8C079
:02FFF000D8C077
:02FFF200D8C075
:02FFF400D8C073
:02FFF600D8C071
:02FFF800D8C06F
:02FFFA00D8C06D
:02FFFC00D8C06B
:02FFFE00B2C08F
:00000001FF
