:20C00000F2D020001A00F2D020001B00B2437201B240E000640182437401B24010006201E9
:20C02000B240100160013041B240805A2001D2D32600D2C34100D2D32200F2D00F005700AE
:20C04000F2D070005600B01200C032D2FF3F31400004B01276C00C43B01228C01C43B0120D
:1AC0600070C032D01000FD3F03439253740100130343FF3F03431C433041FB
:02FFDE00FFFF23
:02FFE00062C0FD
:02FFE40062C0F9
:02FFE60062C0F7
:02FFEA0062C0F3
:02FFEC0062C0F1
:02FFEE0062C0EF
:02FFF00062C0ED
:02FFF2006AC0E3
:02FFF40062C0E9
:02FFF60062C0E7
:02FFF80062C0E5
:02FFFA0062C0E3
:02FFFC0062C0E1
:02FFFE004EC0F3
:00000001FF
