:20C00000B240805A2001F2D080002200F2F0EF002200F2D010002700F2D010002100F2B04E
:20C0200010002000FC230D123D40081A1D83FE233D410343F2B010002000FC270D123D40DD
:20C04000081A1D83FE233D410343F2E080002100E63F31400004B01274C00C43B01200C065
:18C060001C43B0126EC032D01000FD3F03430343FF3F03431C4330414B
:02FFDE00FFFF23
:02FFE00066C0F9
:02FFE40066C0F5
:02FFE60066C0F3
:02FFEA0066C0EF
:02FFEC0066C0ED
:02FFEE0066C0EB
:02FFF00066C0E9
:02FFF20066C0E7
:02FFF40066C0E5
:02FFF60066C0E3
:02FFF80066C0E1
:02FFFA0066C0DF
:02FFFC0066C0DD
:02FFFE0052C0EF
:00000001FF
