:20C00000F2D0800021000D120E123D401CFC3E40BD001D830E73FD230D93FB233E413D41B2
:20C02000003CF2F07F0021000013B240805A2001E2C302003F4050C30F930024E2B30200AC
:20C04000F723B01264C0B01278C032D0D800304131400004B01294C00C43B0122AC01C43B6
:20C06000B0128EC0B24010006201B24010016001B240008072013041F2D080002200F2F04B
:18C080007F002100304132D01000FD3F03430343FF3F03431C43304169
:02FFDE00FFFF23
:02FFE00086C0D9
:02FFE40086C0D5
:02FFE60086C0D3
:02FFEA0086C0CF
:02FFEC0086C0CD
:02FFEE0086C0CB
:02FFF00086C0C9
:02FFF20000C04D
:02FFF40086C0C5
:02FFF60086C0C3
:02FFF80086C0C1
:02FFFA0086C0BF
:02FFFC0086C0BD
:02FFFE0050C0F1
:00000001FF
