:20C00000F2B2200017200D123D4098021D83FE233D410343F2B22000FD270D123D4098024C
:20C020001D83FE233D410343F2F0CF005800F2D030005800F2B01000200018200D123D4082
:20C0400098021D83FE233D410343F2B010002000FC270D123D4098021D83FE233D41034311
:20C06000F2F0CF005800F2D010005800F2B02000200015200D123D4098021D83FE233D4101
:20C080000343F2B020002000FC270D123D4098021D83FE233D410343F2F0CF005800304120
:20C0A0000A1209123F40A6C13F90A8C116243F40A8C13F90ACC111243A40ACC13A80A8C18E
:20C0C0000A110A113940A8C13C497F4C0F5F1F4FA6C13D498F121A83F723B012A0C1304044
:20C0E0007AC1B240805A2001B01212C1B01280C1B01200C0F2E080002100B2406400000233
:20C1000082930002F5279283000282930002F027FA3FF2D020005300E2C30200B24050C38D
:20C1200000028293000205249283000282930002FB23E2B30200F023F2D0C000580030417C
:20C1400031400004B0129CC10C930224B012A0C00C43B012E2C01C43B01296C11F4C0100CD
:20C160000F9305241D53CD43FFFF1F83FB2330413441354136413741384139413A4130418C
:20C18000F2D080002200F2F0C7002200304132D01000FD3F03430343FF3F03431C433041D1
:02C1A00030412C
:0AC1A200000002005CC1A2C100020F
:02FFDE00FFFF23
:02FFE0008EC1D0
:02FFE4008EC1CC
:02FFE6008EC1CA
:02FFEA008EC1C6
:02FFEC008EC1C4
:02FFEE008EC1C2
:02FFF0008EC1C0
:02FFF2008EC1BE
:02FFF4008EC1BC
:02FFF6008EC1BA
:02FFF8008EC1B8
:02FFFA008EC1B6
:02FFFC008EC1B4
:02FFFE0040C100
:00000001FF
