:20C00000B240805A2001F2D080002200F2C22200F2D22700F2D22100F2F07F002100F2C2F3
:20C020002400F2D2250032D0F800F2E0800021000F433F90204EF72F1F533F90204EF32F00
:20C04000FB3F31400004B01270C00C43B01200C01C43B0126AC0B1C0F8000000F2C22300E3
:14C06000001332D01000FD3F03430343FF3F03431C4330418B
:02FFDE00FFFF23
:02FFE00062C0FD
:02FFE40056C005
:02FFE60062C0F7
:02FFEA0062C0F3
:02FFEC0062C0F1
:02FFEE0062C0EF
:02FFF00062C0ED
:02FFF20062C0EB
:02FFF40062C0E9
:02FFF60062C0E7
:02FFF80062C0E5
:02FFFA0062C0E3
:02FFFC0062C0E1
:02FFFE0042C0FF
:00000001FF
