:20C00000B240805A2001F2D0800022000F433F900001172CF2D0800021000F9303240C4FE3
:20C02000B0128AC0F2F07F0021003F90FF0005243C40FF000C8FB0128AC01F533F90000117
:20C04000E92B3F40FF000F93E127F2D0800021000F9303240C4FB0128AC0F2F07F0021008F
:20C060003F90FF0005243C40FF000C8FB0128AC01F83CC27EA3F31400004B012A4C00C43FF
:20C08000B01200C01C43B0129EC00C93032403431C83FD23304132D01000FD3F0343034389
:08C0A000FF3F03431C43304144
:02FFDE00FFFF23
:02FFE00096C0C9
:02FFE40096C0C5
:02FFE60096C0C3
:02FFEA0096C0BF
:02FFEC0096C0BD
:02FFEE0096C0BB
:02FFF00096C0B9
:02FFF20096C0B7
:02FFF40096C0B5
:02FFF60096C0B3
:02FFF80096C0B1
:02FFFA0096C0AF
:02FFFC0096C0AD
:02FFFE0076C0CB
:00000001FF
