:20C00000F24006002600F24006004100F2D040006100F24003006200C2436300F2400600AF
:20C020006400D2C36100D2D3010030410F12E2B30300FD271F435F526600C24F67003F4141
:20C04000001331400004B01274C00C43B01256C01C43B0126EC0B240805A2001B01200C07D
:18C0600032D01800304132D01000FD3F03430343FF3F03431C4330410F
:02FFDE00FFFF23
:02FFE00066C0F9
:02FFE40066C0F5
:02FFE60066C0F3
:02FFEA0066C0EF
:02FFEC0066C0ED
:02FFEE002CC025
:02FFF00066C0E9
:02FFF20066C0E7
:02FFF40066C0E5
:02FFF60066C0E3
:02FFF80066C0E1
:02FFFA0066C0DF
:02FFFC0066C0DD
:02FFFE0042C0FF
:00000001FF
