:20C00000B240805A2001F2D0800022000F433F900001172CF2D0800021000F9303240C4FE3
:20C02000B01276C0F2F07F0021003F90FF0005243C40FF000C8FB01276C01F533F9000013F
:20C04000E92B3F40FF000F93E127F2D0800021000F9303240C4FB01276C0F2F07F002100A3
:20C060003F90FF0005243C40FF000C8FB01276C01F83CC27EA3F0C9309240D123D400E0087
:20C080001D83FE233D4103431C83F723304131400004B012B0C00C43B01200C01C43B01258
:14C0A000AAC032D01000FD3F03430343FF3F03431C433041F4
:02FFDE00FFFF23
:02FFE000A2C0BD
:02FFE400A2C0B9
:02FFE600A2C0B7
:02FFEA00A2C0B3
:02FFEC00A2C0B1
:02FFEE00A2C0AF
:02FFF000A2C0AD
:02FFF200A2C0AB
:02FFF400A2C0A9
:02FFF600A2C0A7
:02FFF800A2C0A5
:02FFFA00A2C0A3
:02FFFC00A2C0A1
:02FFFE008EC0B3
:00000001FF
