:20C000002182F2B0100023001C24F2E0800021008143000081430200819302000F20B190E5
:20C02000640000000B2C9153000081630200819302000420B19064000000F52BF2F0EF00CB
:20C04000230021520013B240805A2001F2D080002200F2F0EF002200F2D010002700F2D038
:20C0600010002100F2D010002400F2D01000250032D2FF3F31400004B01296C00C43B012C2
:1AC0800046C01C43B01290C032D01000FD3F03430343FF3F03431C43304101
:02FFDE00FFFF23
:02FFE00088C0D7
:02FFE40000C05B
:02FFE60088C0D1
:02FFEA0088C0CD
:02FFEC0088C0CB
:02FFEE0088C0C9
:02FFF00088C0C7
:02FFF20088C0C5
:02FFF40088C0C3
:02FFF60088C0C1
:02FFF80088C0BF
:02FFFA0088C0BD
:02FFFC0088C0BB
:02FFFE0074C0CD
:00000001FF
