:20C00000F2D040002200F2D040002600B240FF007201B240E000640182437401B2401000FD
:20C020006201B24010026001304131400004B0126CC00C43B01250C01C43B01266C0925317
:20C040007401B290000174010220824374010013B240805A2001B01200C032D2FF3F32D091
:10C060001000FD3F03430343FF3F03431C433041A4
:02FFDE00FFFF23
:02FFE0005EC001
:02FFE4005EC0FD
:02FFE6005EC0FB
:02FFEA005EC0F7
:02FFEC005EC0F5
:02FFEE005EC0F3
:02FFF0005EC0F1
:02FFF2003EC00F
:02FFF4005EC0ED
:02FFF6005EC0EB
:02FFF8005EC0E9
:02FFFA005EC0E7
:02FFFC005EC0E5
:02FFFE002AC017
:00000001FF
